:100000000C9462000C94E3000C94BC000C948A00E5
:100010000C948A000C948A000C948A000C94310190
:100020000C948A000C948A000C948A000C948A0028
:100030000C948A000C940A010C948A000C948A0097
:100040000C9486030C948A000C948A000C948A0009
:100050000C948A000C948A000C948A000C948A00F8
:100060000C948A000C948A000000000024002700F1
:100070002A000000000023002600290000000000E4
:10008000250028002B0004040404040404040202D4
:100090000202020203030303030301020408102007
:1000A0004080010204081020010204081020000012
:1000B0000008000201000003040700000000000027
:1000C0000000900B11241FBECFEFD4E0DEBFCDBFE8
:1000D00011E0A0E0B1E0E0E7FCE102C005900D9284
:1000E000A630B107D9F721E0A6E0B1E001C01D922A
:1000F000AA3FB207E1F710E0C2E6D0E004C02197C2
:10010000FE010E94210EC136D107C9F70E94D0031B
:100110000C94360E0C94000008958091DA01882327
:10012000F9F02091D8013091D9018091040190918A
:100130000501281739075CF061E085E00E9457034C
:100140001092D9011092D8011092DA01089580918D
:10015000D8019091D90101969093D9018093D8014B
:10016000089581E08093DA011092D9011092D801AC
:1001700060E085E00C9457031F920F920FB60F9228
:1001800011242F933F934F935F936F937F938F939C
:100190009F93AF93BF93EF93FF93E0910201F09190
:1001A00003010995FF91EF91BF91AF919F918F91BD
:1001B0007F916F915F914F913F912F910F900FBE63
:1001C0000F901F9018951F920F920FB60F92112447
:1001D0002F933F934F935F936F937F938F939F934F
:1001E000AF93BF93EF93FF93E0910001F091010172
:1001F0000995FF91EF91BF91AF919F918F917F9161
:100200006F915F914F913F912F910F900FBE0F9083
:100210001F9018951F920F920FB60F9211242F93D3
:100220003F934F935F936F937F938F939F93AF937E
:10023000BF93EF93FF93E091EF01F091F0010995E7
:10024000FF91EF91BF91AF919F918F917F916F91AE
:100250005F914F913F912F910F900FBE0F901F9084
:1002600018951F920F920FB60F9211242F933F9360
:100270004F935F936F937F938F939F93AF93BF93AE
:10028000CF93DF93EF93FF932091070130E0F901C3
:10029000E255FF4F8491F901E656FF4FD491F901E1
:1002A000EA57FF4FC491CC2379F081110E942E03AD
:1002B000EC2FF0E0EE0FFF1FEE58FF4FA591B49129
:1002C000EC91ED2381E009F480E020910B01309165
:1002D0000C012F5F3F4F30930C0120930B01909145
:1002E0000A01953618F096E0909306019091060168
:1002F0009430C9F128F4923069F09330D1F05EC0A7
:10030000953009F451C0963009F058C091E09093AF
:10031000D70151C0811152C020910B0130910C01C5
:100320002436310508F442C01092D70110920A0118
:100330001CC0813009F042C0E0910A0191E09E0F9B
:1003400090930A01F0E020910B0130910C01EE0F27
:10035000FF1FEA5FFE4F3087278310920C01109237
:100360000B0194E029C0811117C0E0910A0191E0CE
:100370009E0F90930A01F0E020910B0130910C0147
:10038000EE0FFF1FEA5FFE4F3087278310920C01AC
:1003900010920B0193E010C020910B0130910C01E1
:1003A0002536310558F007C0811108C010920C01A4
:1003B00010920B0103C095E0909306019091090102
:1003C0009923B9F081110AC080910801882321F096
:1003D0008091080161E009C02D9A0BC0809108014D
:1003E000882331F08091080160E00E94570301C02A
:1003F0002D98FF91EF91DF91CF91BF91AF919F9198
:100400008F917F916F915F914F913F912F910F90BD
:100410000FBE0F901F901895CF92DF92EF92FF9230
:10042000CF93DF93EC01072E000C880B990B0E94F1
:10043000B20C6B017C0120E030E040E45FE30E94FD
:10044000620D20E030E048E452E40E94080C0E9473
:100450007A0CC617D707D4F020E030E040EA5FE31B
:10046000C701B6010E94620D20E030E048E452E48A
:100470000E94080C20E030E040E85FE30E94970B08
:100480000E947A0C21E06C177D070CF420E0822F8B
:1004900090E0DF91CF91FF90EF90DF90CF900895A3
:1004A000DC01CB0163E0880F991FAA1FBB1F6A956F
:1004B000D1F7009721E0A207B10514F421E00DC0A7
:1004C00053E0B595A795979587955A95D1F70097DD
:1004D00021E0A207B10524F422E02093EE0131C00F
:1004E00043E0B595A795979587954A95D1F70097DD
:1004F00021E0A207B10514F423E0EFCF32E0B59577
:10050000A795979587953A95D1F7009721E0A2078F
:10051000B10514F424E0E1CF22E0B595A7959795B5
:1005200087952A95D1F7009721E0A207B10514F429
:1005300025E0D3CF85E08093EE018FEF9FEFA0E021
:10054000B0E09093ED018093EC019093870080934D
:10055000860080918100887F809381009091810046
:100560008091EE01892B8093810008958F929F9254
:10057000AF92BF92CF92DF92EF92FF920F931F93B1
:10058000CF93DF93FC0120813181E091E701F0916D
:10059000E8012E173F070CF04FC0F901EE0FFF1FC7
:1005A000A091E501B091E601EA0FFB1FA080B180A8
:1005B000217033276901F1E0CF26232B19F42CE9B0
:1005C0003FEF02C024E630E07A018B01EC014901E3
:1005D000840E951EB401C5010E940C02892B99F46A
:1005E0008E0C9F1CB401C5010E940C02892B71F472
:1005F000B701680D791DC5010E940C02892BF9F025
:1006000023E030E005C021E030E002C022E030E02D
:10061000F801808191810196821793071CF49183E0
:10062000808308C0F8011182108288819981019627
:1006300099838883C60105C081E090E002C08FEFF6
:100640009FEFDF91CF911F910F91FF90EF90DF907F
:10065000CF90BF90AF909F908F900895833081F09E
:1006600028F4813099F08230A1F008958730A9F004
:100670008830B9F08430D1F4809180008F7D03C040
:10068000809180008F7780938000089584B58F7764
:1006900002C084B58F7D84BD08958091B0008F77AE
:1006A00003C08091B0008F7D8093B00008951F93A8
:1006B000CF93DF93282F30E0F901E255FF4F84916B
:1006C000F901E656FF4FD491F901EA57FF4FC49163
:1006D000CC23C1F0162F81110E942E03EC2FF0E0E5
:1006E000EE0FFF1FE458FF4FA591B4919FB7F89408
:1006F000111104C08C91D095D82302C0EC91DE2B4F
:10070000DC939FBFDF91CF911F9108951F920F92AD
:100710000FB60F9211242F933F938F939F93AF9314
:10072000BF938091F6019091F701A091F801B091EB
:10073000F9013091F50123E0230F2D3720F40196C4
:10074000A11DB11D05C026E8230F0296A11DB11DF4
:100750002093F5018093F6019093F701A093F8019F
:10076000B093F9018091F1019091F201A091F30110
:10077000B091F4010196A11DB11D8093F1019093F8
:10078000F201A093F301B093F401BF91AF919F9157
:100790008F913F912F910F900FBE0F901F90189542
:1007A000CF93DF93CDB7DEB72C970FB6F894DEBFAB
:1007B0000FBECDBF789484B5826084BD84B581605E
:1007C00084BD85B5826085BD85B5816085BD80911C
:1007D0006E00816080936E00109281008091810094
:1007E000826080938100809181008160809381008C
:1007F000809180008160809380008091B10084604E
:100800008093B1008091B00081608093B0008091AE
:100810007A00846080937A0080917A00826080936D
:100820007A0080917A00816080937A0080917A00CA
:10083000806880937A001092C100F89482E08093DF
:10084000B0008093B10094E69093B3001092B20090
:100850008093700078948093060110920A01809131
:10086000070190E0FC01E656FF4F2491FC01EA5796
:10087000FF4F84918823C9F090E0880F991FFC01F5
:10088000E859FF4F45915491FC01E458FF4FA59161
:10089000B4919FB7F894FA018081209582238083D8
:1008A0008C91E22FE823EC939FBFEFE9F0E02491D5
:1008B000EBE8F0E08491882399F090E0880F991F8D
:1008C000FC01E859FF4FA591B491FC01E458FF4F9A
:1008D000859194918FB7F894EC91E22BEC938FBFB4
:1008E00081EB90E090930101809300018091690079
:1008F000836080936900E89A1092800080E1809381
:1009000081006BE470E080E090E00E9450026BE4B4
:1009100070E080E090E00E9450028DE890E09093BB
:10092000F0018093EF0181E080936F0078949091C3
:1009300081008091EE01892B8093810010E2212EAD
:10094000312C44244A94542C32012DE031E0309370
:10095000E6012093E50180910A0190E09093E8017F
:100960008093E7018091D70190E09093EA01809312
:10097000E90180910601853009F097C180910F014E
:1009800090911001885891098D35910588F48091D6
:100990000A01843041F480911101909112018097F5
:1009A000479708F48AC180910A01843408F0FFC097
:1009B00080910A018A3108F451C080910D01909113
:1009C0000E01843F914078F41092E4011092E3010B
:1009D0004092DF015092E0016092E1017092E201E9
:1009E0008BE090E0DFC080910F019091100185971E
:1009F0004B97A0F5E3E1F1E082E090E0C12CD12C2F
:100A00007601AC014F5F5F4F20910A0130E0421741
:100A100053075CF4DF0112972D913C912750310967
:100A20002730310508F471C1CA0101979595879562
:100A30009093E4018093E3010C972CF41092E4016D
:100A40001092E3010BC0C092DF01D092E001E0926E
:100A5000E101F092E20184E090E0E4C080910A01BB
:100A60008A3180F080910D0190910E018032934087
:100A700008F4AACF80910F0190911001C697869734
:100A800008F460C180910A01823230F180910F0137
:100A90009091100106970797F8F4E3E1F1E082E006
:100AA00090E0C12CD12C76019C012F5F3F4F4091EB
:100AB0000A0150E0241735070CF499C10197959568
:100AC00087959093E4018093E30140970CF0A9C1CE
:100AD0001092E4011092E3011C821B8281E090E0FD
:100AE0009A83898380910A018D3060F049E753E051
:100AF000BE016D5F7F4FCE0101960E94B602892B29
:100B000009F4A9C11C821B82E1E0F0E0FA83E983C9
:100B10008091E7019091E801181619060CF4FDC1C7
:100B2000E091E501F091E60182819381C697869775
:100B300008F4E6C280910A01893308F0FDC1809172
:100B40000A01823209F401C2828193818957910995
:100B50008335910508F4ADC3828193818C5491094A
:100B6000C59708F0FEC180910A01843009F0F4C1F4
:100B7000848195818097479708F0EEC1868197819F
:100B80000997099708F0E8C11092E4011092E30177
:100B90004092DF015092E0016092E1017092E20127
:100BA00087E090E09093DC018093DB0179C0809135
:100BB000110190911201825491098E9708F0F8CE9C
:100BC00080E090E040E050E0BA01FC01ED5EFE4FB5
:100BD00020813181295031092930310508F0E8CED2
:100BE000FC01EB5EFE4F208131812751310922311A
:100BF000310508F07DC0440F551F661F771F416007
:100C000004968038910509F73092E4012092E301BF
:100C10004093DF015093E0016093E1017093E201A2
:100C200083E090E09093DC018093DB018091DF0111
:100C30009091E001A091E101B091E2018F3930E69D
:100C400093073EEFA30731E0B307B9F08F35904A21
:100C5000AE4FB14029F580910401909105018F3785
:100C60009105F4F40896803891058CF020E830E086
:100C7000309305012093040113C0809104019091E9
:100C800005018630910564F0089797FD05C09093A3
:100C900005018093040104C0109205011092040123
:100CA00082E08093060110920A0180E090E0892B97
:100CB00009F44BCE0E94000048CE80911301909120
:100CC00014010997099708F06ECE1092E401109272
:100CD000E3014092DF015092E0016092E1017092E5
:100CE000E201E3E0F0E0F093DC01E093DB01D8CF38
:100CF00020813181265031092730310508F058CE46
:100D0000440F551F661F771F7BCF208131812351F0
:100D100031092F30310548F4CC0CDD1CEE1CFF1CD2
:100D20006894C0F8029634966CCE208131812A50A6
:100D300031092930310508F091CECC0CDD1CEE1CB8
:100D4000FF1CF0CF8091110190911201C6978697F8
:100D500008F098CEE5E1F1E023E030E0C12CD12CA1
:100D60007601C901019640910A0150E08417950768
:100D700054F4DF0112974D915C914C5051094B3066
:100D80005105D8F001C0C9010197959587959093B9
:100D9000E4018093E3010C972CF41092E40110928B
:100DA000E30170CEC092DF01D092E001E092E10158
:100DB000F092E2018BE090E035CF808191818597C0
:100DC0004B9770F0808191810C970A9708F05ACE6A
:100DD000CC0CDD1CEE1CFF1C2E5F3F4F3496C1CFA8
:100DE000CC0CDD1CEE1CFF1C6894C0F8F5CFDF01B5
:100DF00012974D915C9111974E5151094731510510
:100E0000D8F4CC0CDD1CEE1CFF1C6894C0F84081AB
:100E1000518134964350510945305105D0F0C901F4
:100E20004DCEC092DF01D092E001E092E101F0925C
:100E3000E2018CE090E0F6CE4D915C914C5051096E
:100E40004B30510508F048CECC0CDD1CEE1CFF1CCD
:100E5000DECF029629CE49E753E0BE016D5F7F4F9A
:100E6000CE0101960E94B602019709F04BCE49E7E8
:100E700053E0BE016D5F7F4FCE0101960E94B60226
:100E8000892B09F03FCE812C912C540100E010E019
:100E900080910A0190E029813A812817390774F579
:100EA00049E753E0BE016D5F7F4FCE0101960E947E
:100EB000B6027C0149E753E0BE016D5F7F4FCE0172
:100EC00001960E94B602F1E0EF16F10451F4892B6D
:100ED00009F018CE880C991CAA1CBB1C689480F8D9
:100EE0000AC0EF2809F00ECE019709F00BCE880C4E
:100EF000991CAA1CBB1C0F5F1F4FCACF1093E401A3
:100F00000093E3018092DF019092E001A092E10161
:100F1000B092E20121E030E02FC2E091E501F091D2
:100F2000E60182E090E09A838983828193818997A8
:100F30004E9708F454C0F4CD82819381895791096A
:100F40008335910508F434C1FACD828193810A97E3
:100F5000099708F48CC1F8CD80910A01843408F017
:100F600010C280910A01863460F1828193810C97CE
:100F70000B9708F457C225C0D90112966D917C9148
:100F800013976E5171096731710508F081C2D7015D
:100F9000C601880F991FAA1FBB1F6C017D016894B1
:100FA000C0F84E5F5F4F2C5F3F4F4534510509F449
:100FB00054C2D9016D917C916C5071096B307105EF
:100FC000D8F280910A01883508F4C9C282819381E0
:100FD000855891098B35910508F46AC2C0C2A3E017
:100FE000B0E0BA83A983848195810B970A9708F0B2
:100FF00097CD4CEB51E0BE016D5F7F4FCE01019666
:101000000E94B602892B09F08BCD4CEB51E0BE015A
:101010006D5F7F4FCE0101960E94B602019709F0E5
:101020007FCD812C912C540100E010E02091E7014C
:101030003091E80189819A81821793070CF051C0A1
:101040004CEB51E0BE016D5F7F4FCE0101960E94D7
:10105000B6027C010330110571F04CEB51E0BE018A
:101060006D5F7F4FCE0101960E94B6026C01033086
:101070001105D9F40DC04CEB51E0BE016D5F7F4FFF
:10108000CE0101960E94B602E816F90631F348CD6A
:101090004CEB51E0BE016D5F7F4FCE0101960E9487
:1010A000B602C816D90609F03BCDE114F10459F493
:1010B000CA94CD2809F034CD880C991CAA1CBB1CFD
:1010C000689480F80BC0EA94EF2809F029CDCD2868
:1010D00009F026CD880C991CAA1CBB1C0F5F1F4F62
:1010E000A5CF1093E4010093E3018092DF01909279
:1010F000E001A092E101B092E20182E090E092CDA5
:10110000848195814B97459708F014CDDF011696A1
:101110007F0126ECE20EF11C20E030E040E050E0E0
:1011200060E070E080E090E00D911C911197095013
:1011300011090830110508F0FDCC12960D911C9193
:101140001397015111090D30110520F501E00E949E
:10115000EA0D21601496AE15BF0531F72093DF012B
:101160003093E0014093E1015093E20100E20E94DC
:10117000050E2093DD013093DE01A5E0B0E0B093D1
:10118000DC01A093DB01E0E3F0E0F093E401E09305
:10119000E3014CCD12960D911C9113970450110947
:1011A0000530110508F0C6CC01E00E94EA0DD2CF4F
:1011B00084819581CA97899708F0C1CC9F012A5FE5
:1011C0003F4FC12CD12C760143E050E0D9016D9105
:1011D0007C916A5071096930710508F0B0CCD90171
:1011E00012966D917C911397665171096131710569
:1011F00070F5D701C601880F991FAA1FBB1F6C018C
:101200007D016894C0F84E5F5F4F2C5F3F4F4B33BA
:101210005105E1F69F012A583F4FD9012D913C918C
:101220002A5031092930310508F089CC2CE130E011
:101230003093E4012093E301C092DF01D092E001FA
:10124000E092E101F092E2018AE090E0EBCCD9017A
:1012500012966D917C9113976650710967307105F4
:1012600008F06DCCCC0CDD1CEE1CFF1CCCCF20910B
:101270000A01CF01820F911D820F911DDC0112978F
:101280008D919C910A97099708F05ECC1092E40129
:101290001092E3014092DF015092E0016092E1017F
:1012A0007092E20126E030E03093DC012093DB0114
:1012B000F7CC80910A01813208F44ECC848195816B
:1012C000CA97899708F048CC9F012A5F3F4FC12CED
:1012D000D12C760143E050E0D9016D917C916A50A8
:1012E00071096930710508F037CCD90112966D91FA
:1012F0007C911397665171096131710590F11296D5
:101300006D917C911397665071096730710508F0F3
:1013100023CCCC0CDD1CEE1CFF1C4E5F5F4F2C5F02
:101320003F4F43325105C1F69F012A5B3F4FD90120
:101330002D913C912A5031092930310508F00CCC0F
:10134000E0E1F0E0F093E401E093E301C092DF011B
:10135000D092E001E092E101F092E20126E030E07B
:101360000BC0D701C601880F991FAA1FBB1F6C01B4
:101370007D016894C0F8D1CF3093DC012093DB016C
:1013800055CC8481958189549109C39708F0E9CDA2
:101390009F012A5F3F4FBF016A577F4FC12CD12C5D
:1013A0007601D9014D915C9149505109493051055F
:1013B00008F0D7CDD90112964D915C911397465103
:1013C000510941315105F0F4D701C601880F991F29
:1013D000AA1FBB1F6C017D016894C0F82C5F3F4FB2
:1013E00026173707F1F63092E4012092E301C0920C
:1013F000DF01D092E001E092E101F092E20187E0AA
:1014000090E010CCD90112964D915C911397465003
:1014100051094730510508F0A4CDCC0CDD1CEE1C61
:10142000FF1CDCCF848195810997099708F0C9CD0D
:10143000868197818C974F9708F0C3CD80859185E1
:1014400089974D9708F0BDCD9F01265F3F4FC12C76
:10145000D12C760145E050E0ACCD9F0126573F4F9F
:10146000D9012D913C912C5031092B30310508F0D8
:10147000A8CD3092E4012092E301C092DF01D09226
:10148000E001E092E101F092E20188E090E0CACB55
:10149000D90112966D917C91139769507109693049
:1014A000710508F08ECDCC0CDD1CEE1CFF1C79CD37
:1014B00084819581825491098E9708F050C08F01E4
:1014C000045C1F4F8DE190E020E030E040910A0184
:1014D00050E04450510984179507FCF4A80142508C
:1014E0005109DA014D915C9149505109483051053B
:1014F000B0F5BC016F5F7F4FD8014D915C911197A2
:10150000475051094730510500F14D915C914851C8
:1015100051094231510500F1CB010197959587950D
:101520009093E4018093E3018A97CCF0C901330FD3
:10153000AA0BBB0B8093DF019093E001A093E10124
:10154000B093E20189E090E06DCB220F331F216060
:1015500002960C5F1F4FBACF220F331FF9CF809135
:101560000A018032E1F48281938106970697B8F4EC
:10157000848195810997099790F49F012A5F3F4FD5
:10158000BF01625C7F4FC12CD12C7601D9014D91F6
:101590005C91465051094630510508F486C02091AF
:1015A000E7013091E80138872F83263031050CF4AC
:1015B00077CB8F010E5F1F4F95ECC92E9DE9D92E79
:1015C0009CE1E92E91E8F92E83E090E09E838D83E3
:1015D000D80114966D917C911597AD90BC9080E0E8
:1015E00090E00E94B00C69877A878B879C87B50151
:1015F00080E090E00E94B00C4B015C012DEC3CECD3
:101600004CE45FE30E94620D9B01AC0169857A8521
:101610008B859C850E94030C87FD19C02DEC3CEC4A
:101620004CE45FE369857A858B859C850E94620D19
:101630009B01AC01C501B4010E94030CE82F880F87
:10164000FF0BEE27FF0FEE1FFF27319602C0E0E0F1
:10165000F0E0A701960163E971E080E091E00E946B
:10166000CF0D6F01FF0FEE08FF08C626D726E8262C
:10167000F926ED81FE813196FE83ED830E5F1F4FCB
:101680002F813885E217F30709F0A2CFC092DF015E
:10169000D092E001E092E101F092E2013092E401A7
:1016A0002092E3018FEF9FEFBDCAD90112964D91B1
:1016B0005C911397495151094331510508F5D70100
:1016C000C601880F991FAA1FBB1F6C017D0168947A
:1016D000C0F82C5F3F4F2617370709F057CF2EE091
:1016E00030E03093E4012093E301C092DF01D09217
:1016F000E001E092E101F092E2018FE090E092CA15
:10170000D90112964D915C91139749505109493076
:10171000510508F044CFCC0CDD1CEE1CFF1CD9CFCA
:10172000E6E0F1E083E08183138208955058BB27FF
:10173000AA270E94AE0B0C94280D0E941A0D38F0B7
:101740000E94210D20F039F49F3F19F426F40C94E7
:10175000170D0EF4E095E7FB0C94110DE92F0E9494
:10176000390D58F3BA17620773078407950720F0FD
:1017700079F4A6F50C945B0D0EF4E0950B2EBA2FC0
:10178000A02D0B01B90190010C01CA01A001112487
:10179000FF27591B99F0593F50F4503E68F11A1633
:1017A000F040A22F232F342F4427585FF3CF4695C4
:1017B00037952795A795F0405395C9F77EF41F16E6
:1017C000BA0B620B730B840BBAF09150A1F0FF0FB0
:1017D000BB1F661F771F881FC2F70EC0BA0F621F9C
:1017E000731F841F48F4879577956795B795F7958C
:1017F0009E3F08F0B0CF9395880F08F09927EE0F21
:101800009795879508950E94ED0C08F481E008955E
:101810000E941C0C0C94280D0E94210D58F00E946F
:101820001A0D40F029F45F3F29F00C94110D51116D
:101830000C945C0D0C94170D0E94390D68F39923DC
:10184000B1F3552391F3951B550BBB27AA276217BC
:101850007307840738F09F5F5F4F220F331F441FC9
:10186000AA1FA9F335D00E2E3AF0E0E832D09150FD
:101870005040E695001CCAF72BD0FE2F29D0660FEA
:10188000771F881FBB1F261737074807AB07B0E82D
:1018900009F0BB0B802DBF01FF2793585F4F3AF033
:1018A0009E3F510578F00C94110D0C945C0D5F3F38
:1018B000E4F3983ED4F3869577956795B795F795B9
:1018C0009F5FC9F7880F911D9695879597F90895A1
:1018D000E1E0660F771F881FBB1F6217730784073D
:1018E000BA0720F0621B730B840BBA0BEE1F88F74C
:1018F000E09508950E94810C6894B1110C945C0DE0
:1019000008950E94410D88F09F5798F0B92F9927AC
:10191000B751B0F0E1F0660F771F881F991F1AF0DA
:10192000BA95C9F714C0B13091F00E945B0DB1E0D7
:1019300008950C945B0D672F782F8827B85F39F0D6
:10194000B93FCCF3869577956795B395D9F73EF473
:1019500090958095709561957F4F8F4F9F4F08951B
:10196000E89409C097FB3EF4909580957095619539
:101970007F4F8F4F9F4F9923A9F0F92F96E9BB27EF
:101980009395F695879577956795B795F111F8CF6B
:10199000FAF4BB0F11F460FF1BC06F5F7F4F8F4FD6
:1019A0009F4F16C0882311F096E911C0772321F0CC
:1019B0009EE8872F762F05C0662371F096E8862F64
:1019C00070E060E02AF09A95660F771F881FDAF7BB
:1019D000880F9695879597F90895990F0008550FE8
:1019E000AA0BE0E8FEEF16161706E807F907C0F0A5
:1019F00012161306E407F50798F0621B730B840BAD
:101A0000950B39F40A2661F0232B242B252B21F486
:101A100008950A2609F4A140A6958FEF811D811D26
:101A2000089597F99F6780E870E060E008959FEF60
:101A300080EC089500240A94161617061806090665
:101A4000089500240A941216130614060506089534
:101A5000092E0394000C11F4882352F0BB0F40F4BC
:101A6000BF2B11F460FF04C06F5F7F4F8F4F9F4FFC
:101A7000089557FD9058440F551F59F05F3F71F07E
:101A80004795880F97FB991F61F09F3F79F08795E5
:101A90000895121613061406551FF2CF4695F1DF6E
:101AA00008C0161617061806991FF1CF86957105FE
:101AB000610508940895E894BB2766277727CB0132
:101AC00097F908950E94750D0C94280D0E941A0D27
:101AD00038F00E94210D20F0952311F00C94110D87
:101AE0000C94170D11240C945C0D0E94390D70F3A9
:101AF000959FC1F3950F50E0551F629FF001729FB3
:101B0000BB27F00DB11D639FAA27F00DB11DAA1FC1
:101B1000649F6627B00DA11D661F829F2227B00D0E
:101B2000A11D621F739FB00DA11D621F839FA00D99
:101B3000611D221F749F3327A00D611D231F849FE9
:101B4000600D211D822F762F6A2F11249F57504040
:101B50009AF0F1F088234AF0EE0FFF1FBB1F661FBB
:101B6000771F881F91505040A9F79E3F510580F084
:101B70000C94110D0C945C0D5F3FE4F3983ED4F38C
:101B8000869577956795B795F795E7959F5FC1F728
:101B9000FE2B880F911D9695879597F90895DB0187
:101BA0008F939F930E94DF0DBF91AF91A29F800DF5
:101BB000911DA39F900DB29F900D112408950E9436
:101BC000270EA59F900DB49F900DA49F800D911D91
:101BD000112408950F93083090F0982F872F762FB7
:101BE000652F542F432F322F22270850F4CF220F76
:101BF000331F441F551F661F771F881F991F0A95A3
:101C0000B2F70F91089597FB10F8169400080F9300
:101C1000083098F00850232F342F452F562F672F68
:101C2000782F892F902DF4CF0594979587957795E8
:101C3000679557954795379527950A95AAF70F9178
:101C40000895EE0FFF1F0590F491E02D0994A29FD7
:101C5000B001B39FC001A39F700D811D1124911D80
:101C6000B29F700D811D1124911D0895F894FFCF2E
:061C70008C008C008000D6
:00000001FF
