:100000000C9462000C948A000C948A000C948A0070
:100010000C948A000C948A000C948A000C94F601CB
:100020000C948A000C948A000C948A000C948A0028
:100030000C948A000C948A000C948A000C948A0018
:100040000C9458040C948A000C94C4010C949E01E6
:100050000C948A000C948A000C948A000C948A00F8
:100060000C948A000C948A000000000023002600F3
:10007000290000000000240027002A0000000000E2
:10008000250028002B0004040404040404040202D4
:100090000202020203030303030301020408102007
:1000A0004080010204081020010204081020000012
:1000B0000008000201000003040700000000000027
:1000C0000000290D11241FBECFEFD8E0DEBFCDBF49
:1000D00011E0A0E0B1E0E8E4F0E202C005900D928A
:1000E000A033B107D9F722E0A0E3B1E001C01D922F
:1000F000A13CB207E1F710E0C2E6D0E004C02197CE
:10010000FE010E940810C136D107C9F70E94A2045F
:100110000C9422100C940000CF92DF92EF92FF9289
:100120000F931F93CF93DF936C017A018B01C0E093
:10013000D0E0CE15DF0581F0D8016D918D01D6019B
:10014000ED91FC910190F081E02DC6010995892B7C
:1001500011F02196EECF7E01C701DF91CF911F9163
:100160000F91FF90EF90DF90CF900895089580E079
:1001700090E00895FC01538D448D252F30E0842FAD
:1001800090E0821B930B541710F0CF9608950197BF
:100190000895FC01918D828D981761F0828DDF01A9
:1001A000A80FB11D5D968C91928D9F5F9F73928F6A
:1001B00090E008958FEF9FEF0895FC01918D828D5F
:1001C000981731F0828DE80FF11D858D90E008952C
:1001D0008FEF9FEF0895FC01918D228D892F90E084
:1001E000805C9F4F821B91098F739927089588E443
:1001F00091E00E94EB0021E0892B09F420E0822F9E
:100200000895FC01848DDF01A80FB11DA35ABF4FD3
:100210002C91848D90E001968F739927848FA68905
:10022000B7892C93A089B1898C91837080648C9359
:10023000938D848D981306C00288F389E02D808108
:100240008F7D80830895EF92FF920F931F93CF933A
:10025000DF93EC0181E0888F9B8D8C8D981305C016
:10026000E889F989808185FD26C0F62E0B8D10E086
:100270000F5F1F4F0F731127E02E8C8DE8120CC0FB
:100280000FB607FCFACFE889F989808185FFF5CFA1
:10029000CE010E940101F1CF8B8DFE01E80FF11D0F
:1002A000E35AFF4FF0829FB7F8940B8FEA89FB89DE
:1002B000808180620AC09FB7F894EE89FF896083CD
:1002C000E889F98980818370806480839FBF81E0A1
:1002D00090E0DF91CF911F910F91FF90EF900895E3
:1002E000CF93DF93EC01888D8823C9F0EA89FB89DD
:1002F000808185FD05C0A889B9898C9186FD0FC0D4
:100300000FB607FCF5CF808185FFF2CFA889B989A8
:100310008C9185FFEDCFCE010E940101E7CFDF91E7
:10032000CF91089580E090E0892B29F00E94F7009A
:1003300081110C94000008950E941D101F920F92CD
:100340000FB60F9211242F933F934F935F936F93A8
:100350007F938F939F93AF93BF93EF93FF9388E423
:1003600091E00E940101FF91EF91BF91AF919F91A8
:100370008F917F916F915F914F913F912F910F904E
:100380000FBE0F901F9018951F920F920FB60F92ED
:1003900011242F938F939F93EF93FF93E091580134
:1003A000F09159018081E0915E01F0915F0182FD41
:1003B00012C09081809161018F5F8F7320916201E3
:1003C000821751F0E0916101F0E0E85BFE4F958FFC
:1003D0008093610101C08081FF91EF919F918F9186
:1003E0002F910F900FBE0F901F9018951F920F9294
:1003F0000FB60F9211242F933F934F935F936F93F8
:100400007F938F939F93AF93BF93CF93DF93EF939C
:10041000FF932091E60130E0F901E255FF4F84910E
:10042000F901E656FF4FD491F901EA57FF4FC49105
:10043000CC2379F081110E949F03EC2FF0E0EE0FA6
:10044000FF1FE859FF4FA591B491EC91ED2381E096
:1004500009F480E02091EA013091EB012F5F3F4FDA
:100460003093EB012093EA019091E901953618F061
:1004700096E09093E5019091E5019430C9F128F45C
:10048000923069F09330D1F05EC0953009F451C0DC
:10049000963009F058C091E09093B60251C0811196
:1004A00052C02091EA013091EB012436310508F465
:1004B00042C01092B6021092E9011CC0813009F0CE
:1004C00042C0E091E90191E09E0F9093E901F0E0D4
:1004D0002091EA013091EB01EE0FFF1FEB51FE4F2F
:1004E000308727831092EB011092EA0194E029C033
:1004F000811117C0E091E90191E09E0F9093E9010D
:10050000F0E02091EA013091EB01EE0FFF1FEB517B
:10051000FE4F308727831092EB011092EA0193E09F
:1005200010C02091EA013091EB012536310558F0D9
:1005300007C0811108C01092EB011092EA0103C0BC
:1005400095E09093E5019091E8019923B9F081112C
:100550000AC08091E701882321F08091E70161E0E2
:1005600009C02D9A0BC08091E701882331F080915A
:10057000E70160E00E94C80301C02D98FF91EF9150
:10058000DF91CF91BF91AF919F918F917F916F91AB
:100590005F914F913F912F910F900FBE0F901F9041
:1005A0001895CF92DF92EF92FF92CF93DF93EC01F9
:1005B000072E000C880B990B0E94770E6B017C01B3
:1005C00020E030E040E45FE30E94270F20E030E0CD
:1005D00048E452E40E94CD0D0E943F0EC617D70793
:1005E000D4F020E030E040EA5FE3C701B6010E94AA
:1005F000270F20E030E048E452E40E94CD0D20E0D7
:1006000030E040E85FE30E945C0D0E943F0E21E075
:100610006C177D070CF420E0822F90E0DF91CF91E2
:10062000FF90EF90DF90CF900895009769F0FC0164
:1006300001900020E9F73197AF01481B590BBC012D
:1006400088E491E00C948C0080E090E008958F9213
:100650009F92AF92BF92CF92DF92EF92FF920F9351
:100660001F93CF93DF93FC0120813181E0914401FE
:10067000F09145012E173F070CF04FC0F901EE0F26
:10068000FF1FA0914201B0914301EA0FFB1FA08020
:10069000B180217033276901F1E0CF26232B19F4B3
:1006A0002CE93FEF02C024E630E07A018B01EC0137
:1006B0004901840E951EB401C5010E94D102892B07
:1006C00099F48E0C9F1CB401C5010E94D102892BA4
:1006D00071F4B701680D791DC5010E94D102892B03
:1006E000F9F023E030E005C021E030E002C022E074
:1006F00030E0F801808191810196821793071CF404
:100700009183808308C0F8011182108288819981C9
:10071000019699838883C60105C081E090E002C0FC
:100720008FEF9FEFDF91CF911F910F91FF90EF908F
:10073000DF90CF90BF90AF909F908F9008958330BF
:1007400081F028F4813099F08230A1F0089587304B
:10075000A9F08830B9F08430D1F4809180008F7D89
:1007600003C0809180008F7780938000089584B5C6
:100770008F7702C084B58F7D84BD08958091B000CD
:100780008F7703C08091B0008F7D8093B000089573
:100790001F93CF93DF93282F30E0F901E255FF4FED
:1007A0008491F901E656FF4FD491F901EA57FF4FC2
:1007B000C491CC23C1F0162F81110E949F03EC2F0E
:1007C000F0E0EE0FFF1FE458FF4FA591B4919FB7E3
:1007D000F894111104C08C91D095D82302C0EC91EB
:1007E000DE2BDC939FBFDF91CF911F910895CF93B4
:1007F000DF9390E0FC01E656FF4F2491FC01EA579D
:10080000FF4F8491882361F190E0880F991FFC01CC
:10081000EE58FF4FC591D491FC01E458FF4FA591CC
:10082000B491611109C09FB7F89488812095822303
:100830008883EC912E230BC0623061F49FB7F8944B
:100840008881322F309583238883EC912E2B2C9333
:100850009FBF06C08FB7F894E8812E2B28838FBFE7
:10086000DF91CF9108953FB7F8948091BD029091A8
:10087000BE02A091BF02B091C00226B5A89B05C0E0
:100880002F3F19F00196A11DB11D3FBFBA2FA92F0F
:10089000982F8827820F911DA11DB11DBC01CD018C
:1008A00042E0660F771F881F991F4A95D1F7089578
:1008B0001F920F920FB60F9211242F933F938F9395
:1008C0009F93AF93BF938091B9029091BA02A09188
:1008D000BB02B091BC023091B80223E0230F2D3748
:1008E00020F40196A11DB11D05C026E8230F029634
:1008F000A11DB11D2093B8028093B9029093BA0252
:10090000A093BB02B093BC028091BD029091BE0245
:10091000A091BF02B091C0020196A11DB11D8093AC
:10092000BD029093BE02A093BF02B093C002BF91DC
:10093000AF919F918F913F912F910F900FBE0F908C
:100940001F901895CF93DF93CDB7DEB7AB970FB657
:10095000F894DEBF0FBECDBF789484B5826084BDAD
:1009600084B5816084BD85B5826085BD85B58160B3
:1009700085BD80916E00816080936E001092810031
:1009800080918100826080938100809181008160EC
:1009900080938100809180008160809380008091AD
:1009A000B10084608093B1008091B0008160809339
:1009B000B00080917A00846080937A0080917A0000
:1009C000826080937A0080917A00816080937A00BF
:1009D00080917A00806880937A001092C100E09143
:1009E0005801F091590112E01083E0915401F09107
:1009F00055011082E0915601F09157018FEC8083F0
:100A000010926001E0915C01F0915D0186E08083CD
:100A1000E0915A01F0915B01808180618083E091D7
:100A20005A01F0915B01808188608083E0915A01D6
:100A3000F0915B01808180688083E0915A01F091A0
:100A40005B0180818F7D808382E191E00E941503AC
:100A500080E291E00E941503F8941093B000109387
:100A6000B10084E68093B3001092B200109370003E
:100A700078941093E5011092E9018091E60160E01D
:100A80000E94F70383E291E00E94150380E291E067
:100A90000E94150361E088E00E94F70361E089E0AD
:100AA0000E94F70361E082E00E94F70361E083E0C7
:100AB0000E94F70361E084E00E94F70361E085E0B3
:100AC0000E94F70361E086E00E94F70361E087E09F
:100AD0000E94F70360E089E00E94C80360E083E0C1
:100AE0000E94C80360E085E00E94C80360E087E0E0
:100AF0000E94C80344244A94542C32012224239493
:100B0000312C2CEE31E0309343012093420180914F
:100B1000E90190E090934501809344018091B602F1
:100B200090E090934701809346018091E5018530E4
:100B300009F082C18091EE019091EF0188589109EE
:100B40008D35910588F48091E901843041F48091DC
:100B5000F0019091F1018097479708F465C080916A
:100B6000E901843408F091C18091E9018A3108F4E7
:100B7000F6C18091EC019091ED01843F914068F4C1
:100B8000109241011092400140923C0150923D016F
:100B900060923E0170923F0144C08091EE019091BD
:100BA000EF0185974B9708F0DAC1E2EFF1E082E0C0
:100BB00090E0C12CD12C7601AC014F5F5F4F2091AA
:100BC000E90130E0421753075CF4DF0112972D91E1
:100BD0003C91275031092730310508F4A4C1CA01DE
:100BE00001979595879590934101809340010C97CB
:100BF0002CF41092410110924001B1C1C0923C010D
:100C0000D0923D01E0923E01F0923F0184E090E0FD
:100C100021C0C0923C01D0923D01E0923E01F09291
:100C20003F018BE090E016C08091F2019091F301BA
:100C30000997099708F093CF109241011092400153
:100C400040923C0150923D0160923E0170923F0102
:100C500083E090E0909339018093380120913C012A
:100C600030913D0140913E0150913F0119A28E010A
:100C70000F5D1F4FCA01B9012AE030E040E050E0AB
:100C80000E94A40F605DD8016E938D01211531057E
:100C90004105510579F7CD010E94150380E291E0ED
:100CA0000E94150380913C0190913D01A0913E016D
:100CB000B0913F018F34E0EB9E07E1E4AE07EEEB2D
:100CC000BE0741F0873BF8E49F07FDEFAF07F2E076
:100CD000BF0789F460E088E00E94C80360E082E01A
:100CE0000E94C80360E084E00E94C80360E086E0E0
:100CF0000E94C8039CC08F3720E8920721E4A20716
:100D00002EEBB20741F08F3730E893073DEFA30792
:100D100032E0B307C1F48091360190913701892BFD
:100D200049F461E082E00E94C803309237012092CA
:100D300036017DC060E082E00E94C8031092370156
:100D40001092360174C08F3BE0E49E07E1E4AE07E9
:100D5000EEEBBE0741F08F3BF0E49F07FDEFAF07DE
:100D6000F2E0BF07C1F48091340190913501892BE5
:100D700049F461E084E00E94C8033092350120927A
:100D8000340155C060E084E00E94C8031092350130
:100D9000109234014CC08F3320EC920721E4A2075B
:100DA0002EEBB20741F08F3330EC93073DEFA307F2
:100DB00032E0B307C1F48091320190913301892B65
:100DC00049F461E086E00E94C8033092330120922A
:100DD00032012DC060E086E00E94C803109233010A
:100DE0001092320124C08F3DE0E29E07E1E4AE079D
:100DF000EEEBBE0729F08F3D9042AD4FB240B9F403
:100E00008091300190913101892B49F461E088E0B3
:100E10000E94C803309231012092300108C060E086
:100E200088E00E94C803109231011092300182E0E4
:100E30008093E5011092E9010E9433046B017C016B
:100E400004E6802E912CA12CB12C0E943304DC01ED
:100E5000CB018C199D09AE09BF09883E9340A105BD
:100E6000B10598F321E0821A9108A108B10838EE83
:100E7000C30E33E0D31EE11CF11C81149104A104C4
:100E8000B10419F70E9492013CCE8091F00190913B
:100E9000F101825491098E9708F066CE80E090E0CF
:100EA00040E050E0BA01FC01EE50FE4F208131815C
:100EB000295031092930310508F056CEFC01EC509B
:100EC000FE4F208131812751310922313105F0F463
:100ED000440F551F661F771F4160049680389105A7
:100EE00011F7A0E2B0E0B0934101A093400140931C
:100EF0003C0150933D0160933E0170933F01E3E05C
:100F0000F0E0F0933901E0933801A8CE20813181DF
:100F1000265031092730310508F026CE440F551FE1
:100F2000661F771FDACF20813181235131092F309D
:100F3000310548F4CC0CDD1CEE1CFF1C6894C0F895
:100F40000296349639CE208131812A5031092930D8
:100F5000310528F4CC0CDD1CEE1CFF1CF1CF809178
:100F6000E9018A3108F45DC08091EC019091ED01B6
:100F70008032934008F404CE8091EE019091EF010D
:100F8000C697869708F04DC08091F0019091F101CD
:100F9000C697869708F045C0E4EFF1E083E090E063
:100FA000C12CD12C7601AC014F5F5F4F2091E9013C
:100FB00030E04217530754F4DF0112972D913C9112
:100FC0002C5031092B30310580F0CA0101979595DD
:100FD000879590934101809340010C970CF019CEB6
:100FE00010924101109240011CC020813181255294
:100FF00031092B31310548F4CC0CDD1CEE1CFF1CF3
:101000006894C0F802963496CECF208131812C505E
:1010100031092A30310528F4CC0CDD1CEE1CFF1CF4
:10102000F1CF8091E901823208F458C08091EE013D
:101030009091EF010697079708F050C0E2EFF1E0BA
:1010400082E090E0C12CD12C76019C012F5F3F4FB4
:101050004091E90150E024173507CCF4DF011297E5
:101060004D915C9111974E5151094731510540F511
:10107000CC0CDD1CEE1CFF1C6894C0F84081518133
:101080003496435051094530510530F1C90101975B
:1010900095958795909341018093400140972CF45A
:1010A000109241011092400119C0C0923C01D092AF
:1010B0003D01E0923E01F0923F018CE090E0CACD0C
:1010C0004D915C914C5051094B30510538F4CC0C8A
:1010D000DD1CEE1CFF1CD2CF0296B7CF1BA21AA2BA
:1010E0003A8229828091E9018D3068F41BA21AA20C
:1010F0003A8229828091440190914501181619067F
:101100000CF46EC0C5C049E753E0BE016E5D7F4F71
:10111000CE0101960E942703892B41F749E753E04E
:10112000BE016E5D7F4FCE0101960E94270301979D
:10113000E9F649E753E0BE016E5D7F4FCE010196AF
:101140000E942703892B91F6812C912C540100E0F9
:1011500010E08091E90190E029813A812817390750
:1011600074F549E753E0BE016E5D7F4FCE010196F5
:101170000E9427037C0149E753E0BE016E5D7F4F6B
:10118000CE0101960E94270331E0E316F10451F4E9
:10119000892B09F0ABCF880C991CAA1CBB1C689446
:1011A00080F80AC0EF2809F0A1CF019709F09ECF7F
:1011B000880C991CAA1CBB1C0F5F1F4FCACF109331
:1011C00041010093400180923C0190923D01A09228
:1011D0003E01B0923F0130923901209238013ECD5C
:1011E000E0914201F091430182E090E09A8389838B
:1011F0008281938189974E9708F04AC023E030E0BE
:101200003A832983848195810B970A9708F040C01F
:101210004CEB51E0BE016E5D7F4FCE0101960E9406
:101220002703892BA9F54CEB51E0BE016E5D7F4F82
:10123000CE0101960E942703019751F5812C912C34
:10124000540100E010E02091440130914501898172
:101250009A81821793070CF026C14CEB51E0BE0136
:101260006E5D7F4FCE0101960E9427037C01033003
:10127000110509F0E2C04CEB51E0BE016E5D7F4FFD
:10128000CE0101960E942703E816F90609F4D5C09D
:10129000E0914201F091430182819381C697869744
:1012A000E0F4848195814B974597B8F4DF01169659
:1012B0007F0136ECE30EF11C20E030E040E050E02E
:1012C00060E070E080E090E00D911C911197095072
:1012D00011090830110508F4F5C08091E90189333E
:1012E00070F182819381895791098335910508F4C2
:1012F00025C125C0D90112966D917C911397665135
:1013000071096131710508F045C1D701C601880F27
:10131000991FAA1FBB1F6C017D016894C0F84E5F26
:101320005F4F2C5F3F4F4B33510509F416C1D90174
:101330006D917C916A50710969307105D8F2809184
:10134000E901823231F4828193810A97099708F486
:1013500031C1828193818957910983359105D0F4F8
:101360008091E9018132B0F084819581CA97899793
:1013700088F49F012A5F3F4FC12CD12C760143E0B6
:1013800050E0D9016D917C916A5071096930710505
:1013900008F42CC1828193818C549109C59778F40B
:1013A0008091E901843031F4848195818097479759
:1013B00008F47CC18091E901843408F05EC1809119
:1013C000E901863460F1828193810C970B9708F4D0
:1013D000BAC125C0D90112966D917C9113976E51B7
:1013E00071096731710508F0E6C1D701C601880FA0
:1013F000991FAA1FBB1F6C017D016894C0F84E5F46
:101400005F4F2C5F3F4F4534510509F4B7C1D901F7
:101410006D917C916C5071096B307105D8F280919F
:10142000E901883508F42FC282819381855891099A
:101430008B35910508F4CFC126C24CEB51E0BE01BB
:101440006E5D7F4FCE0101960E9427036C01033031
:10145000110569F44CEB51E0BE016E5D7F4FCE018A
:1014600001960E942703C816D90609F011CFE1148E
:10147000F10459F4CA94CD2809F00ACF880C991CBC
:10148000AA1CBB1C689480F80BC0EA94EF2809F0F2
:10149000FFCECD2809F0FCCE880C991CAA1CBB1CE1
:1014A0000F5F1F4FD0CE10934101009340018092F7
:1014B0003C0190923D01A0923E01B0923F0182E03A
:1014C00090E0C8CB12960D911C9113970151110910
:1014D0000D30110528F501E00E94D10F216014960E
:1014E000AE15BF0509F0F0CE20933C0130933D01CD
:1014F00040933E0150933F0100E20E94EC0F209385
:101500003A0130933B01A5E0B0E0B0933901A093DC
:101510003801E0E3F0E0F0934101E09340019ECB1D
:1015200012960D911C911397045011090530110565
:1015300008F0D3CE01E00E94D10FD1CF84819581F4
:10154000CA97899708F0FBCE9F012A5F3F4FC12CB5
:10155000D12C760143E050E0EACE9F012A583F4F5C
:10156000D9012D913C912A5031092930310508F0DB
:10157000E6CE2CE130E03093410120934001C0924F
:101580003C01D0923D01E0923E01F0923F018AE0A1
:1015900090E060CBD90112966D917C9113976650C3
:1015A00071096730710508F0CACECC0CDD1CEE1C49
:1015B000FF1CB5CE2091E901CF01820F911D820F52
:1015C000911DDC0112978D919C910A97099708F063
:1015D000C0CE109241011092400140923C015092C5
:1015E0003D0160923E0170923F0130C2D9011296D6
:1015F0006D917C911397665171096131710568F5A0
:10160000D701C601880F991FAA1FBB1F6C017D015E
:101610006894C0F84E5F5F4F2C5F3F4F43325105D7
:1016200009F0AFCE9F012A5B3F4FD9012D913C912C
:101630002A5031092930310508F0ACCEE0E1F0E064
:10164000F0934101E0934001C0923C01D0923D01F2
:10165000E0923E01F0923F01F9C1D90112966D91DD
:101660007C911397665071096730710508F092CE2E
:10167000CC0CDD1CEE1CFF1CCDCF848195818954E0
:101680009109C39708F09BCE9F012A5F3F4FBF018E
:101690006A577F4FC12CD12C7601D9014D915C91B5
:1016A0004950510949305105A0F089CE8681978172
:1016B0000997099708F07ECE1092410110924001DF
:1016C00040923C0150923D0160923E0170923F0178
:1016D00027C0D90112964D915C911397465151093B
:1016E0004131510500F5D701C601880F991FAA1F86
:1016F000BB1F6C017D016894C0F82C5F3F4F26171B
:10170000370759F6E0E2F0E0F0934101E093400141
:10171000C0923C01D0923D01E0923E01F0923F0127
:1017200087E090E097CAD90112964D915C9113978A
:10173000465051094730510508F041CECC0CDD1C14
:10174000EE1CFF1CDACF848195810997099708F078
:1017500066CE868197818C974F9708F060CE808502
:10176000918589974D9708F05ACE9F01265F3F4F8C
:10177000C12CD12C760145E050E049CE9F0126577F
:101780003F4FD9012D913C912C5031092B3031051F
:1017900008F045CEE0E2F0E0F0934101E093400133
:1017A000C0923C01D0923D01E0923E01F0923F0197
:1017B00088E090E04FCAD90112966D917C91139701
:1017C000695071096930710508F029CECC0CDD1C17
:1017D000EE1CFF1C14CE84819581825491098E9752
:1017E00008F051C08F01045C1F4F8DE190E020E0B4
:1017F00030E04091E90150E04450510984179507C9
:10180000ACF4A80142505109DA014D915C91495064
:1018100051094830510510F136C0D8014D915C9105
:10182000485151094231510558F1CB010197959525
:10183000879590934101809340018A9724F1C901D3
:10184000330FAA0BBB0B80933C0190933D01A093F7
:101850003E01B0933F0189E090E0FCC9BC016F5F9D
:101860007F4FD8014D915C91475051094730510548
:10187000A0F6220F331F216002960C5F1F4FB9CFD5
:10188000220F331FF9CF8091E9018032E1F4828188
:10189000938106970697B8F48481958109970997F3
:1018A00090F49F012A5F3F4FBF01625C7F4FC12CC4
:1018B000D12C7601D9014D915C91465051094630A9
:1018C000510508F488C020914401309145013FA39F
:1018D0002EA3263031050CF4AACA8F010E5F1F4FCC
:1018E00095ECC92E9DE9D92E9CE1E92E91E8F92EBF
:1018F00083E090E09DA38CA3D80114966D917C9118
:101900001597AD90BC9080E090E00E94750E68A79E
:1019100079A78AA79BA7B50180E090E00E94750E89
:101920004B015C012DEC3CEC4CE45FE30E94270F83
:101930009B01AC0168A579A58AA59BA50E94C80D4D
:1019400087FD19C02DEC3CEC4CE45FE368A579A55C
:101950008AA59BA50E94270F9B01AC01C501B4017C
:101960000E94C80DE82F880FFF0BEE27FF0FEE1F18
:10197000FF27319602C0E0E0F0E0A701960163E99D
:1019800071E080E091E00E94940F6F01FF0FEE087C
:10199000FF08C626D726E826F926ECA1FDA1319638
:1019A000FDA3ECA30E5F1F4F2EA13FA12E173F07F3
:1019B00009F0A2CFC0923C01D0923D01E0923E01DD
:1019C000F0923F0180E290E09093410180934001CA
:1019D0008FEF9FEF3FC9D90112964D915C911397FC
:1019E000495151094331510508F5D701C601880F06
:1019F000991FAA1FBB1F6C017D016894C0F82C5F62
:101A00003F4F2617370709F055CF2EE030E03093CF
:101A1000410120934001C0923C01D0923D01E092EF
:101A20003E01F0923F018FE090E014C9D901129677
:101A30004D915C911397495051094930510508F077
:101A400042CFCC0CDD1CEE1CFF1CD9CF86E090E011
:101A500001C9E8E4F1E01382128288EE93E0A0E08D
:101A6000B0E084839583A683B78384E091E091837B
:101A7000808385EC90E09587848784EC90E097875D
:101A8000868780EC90E0918B808B81EC90E0938B4B
:101A9000828B82EC90E0958B848B86EC90E0978B28
:101AA000868B118E128E138E148EE5EEF1E08EE091
:101AB0008183138208955058BB27AA270E94730D73
:101AC0000C94ED0E0E94DF0E38F00E94E60E20F01E
:101AD00039F49F3F19F426F40C94DC0E0EF4E095D3
:101AE000E7FB0C94D60EE92F0E94FE0E58F3BA17AE
:101AF000620773078407950720F079F4A6F50C9424
:101B0000200F0EF4E0950B2EBA2FA02D0B01B9017A
:101B100090010C01CA01A0011124FF27591B99F063
:101B2000593F50F4503E68F11A16F040A22F232F6F
:101B3000342F4427585FF3CF469537952795A795BF
:101B4000F0405395C9F77EF41F16BA0B620B730B66
:101B5000840BBAF09150A1F0FF0FBB1F661F771FD7
:101B6000881FC2F70EC0BA0F621F731F841F48F48C
:101B7000879577956795B795F7959E3F08F0B0CF15
:101B80009395880F08F09927EE0F979587950895FC
:101B90000E94B20E08F481E008950E94E10D0C94B9
:101BA000ED0E0E94E60E58F00E94DF0E40F029F480
:101BB0005F3F29F00C94D60E51110C94210F0C9418
:101BC000DC0E0E94FE0E68F39923B1F3552391F3C6
:101BD000951B550BBB27AA2762177307840738F09C
:101BE0009F5F5F4F220F331F441FAA1FA9F335D0F9
:101BF0000E2E3AF0E0E832D091505040E695001CAD
:101C0000CAF72BD0FE2F29D0660F771F881FBB1F66
:101C1000261737074807AB07B0E809F0BB0B802D44
:101C2000BF01FF2793585F4F3AF09E3F510578F070
:101C30000C94D60E0C94210F5F3FE4F3983ED4F33E
:101C4000869577956795B795F7959F5FC9F7880F44
:101C5000911D9695879597F90895E1E0660F771F96
:101C6000881FBB1F621773078407BA0720F0621B27
:101C7000730B840BBA0BEE1F88F7E09508950E9452
:101C8000460E6894B1110C94210F08950E94060F1E
:101C900088F09F5798F0B92F9927B751B0F0E1F02D
:101CA000660F771F881F991F1AF0BA95C9F714C0DD
:101CB000B13091F00E94200FB1E008950C94200FF4
:101CC000672F782F8827B85F39F0B93FCCF3869516
:101CD00077956795B395D9F73EF490958095709573
:101CE00061957F4F8F4F9F4F0895E89409C097FBF0
:101CF0003EF490958095709561957F4F8F4F9F4FE3
:101D00009923A9F0F92F96E9BB279395F695879526
:101D100077956795B795F111F8CFFAF4BB0F11F4E9
:101D200060FF1BC06F5F7F4F8F4F9F4F16C0882390
:101D300011F096E911C0772321F09EE8872F762FC6
:101D400005C0662371F096E8862F70E060E02AF007
:101D50009A95660F771F881FDAF7880F96958795F3
:101D600097F90895990F0008550FAA0BE0E8FEEFC8
:101D700016161706E807F907C0F012161306E4074F
:101D8000F50798F0621B730B840B950B39F40A2648
:101D900061F0232B242B252B21F408950A2609F426
:101DA000A140A6958FEF811D811D089597F99F672A
:101DB00080E870E060E008959FEF80EC08950024D3
:101DC0000A941616170618060906089500240A94A0
:101DD00012161306140605060895092E0394000C26
:101DE00011F4882352F0BB0F40F4BF2B11F460FFB5
:101DF00004C06F5F7F4F8F4F9F4F089557FD9058DE
:101E0000440F551F59F05F3F71F04795880F97FBBE
:101E1000991F61F09F3F79F0879508951216130678
:101E20001406551FF2CF4695F1DF08C016161706A7
:101E30001806991FF1CF86957105610508940895DC
:101E4000E894BB2766277727CB0197F908950E946E
:101E50003A0F0C94ED0E0E94DF0E38F00E94E60E51
:101E600020F0952311F00C94D60E0C94DC0E112466
:101E70000C94210F0E94FE0E70F3959FC1F3950FF5
:101E800050E0551F629FF001729FBB27F00DB11DFE
:101E9000639FAA27F00DB11DAA1F649F6627B00D8E
:101EA000A11D661F829F2227B00DA11D621F739F77
:101EB000B00DA11D621F839FA00D611D221F749F85
:101EC0003327A00D611D231F849F600D211D822FCC
:101ED000762F6A2F11249F5750409AF0F1F08823F3
:101EE0004AF0EE0FFF1FBB1F661F771F881F915020
:101EF0005040A9F79E3F510580F00C94D60E0C94EB
:101F0000210F5F3FE4F3983ED4F38695779567956C
:101F1000B795F795E7959F5FC1F7FE2B880F911D49
:101F20009695879597F90895DB018F939F930E946B
:101F3000C60FBF91AF91A29F800D911DA39F900DE1
:101F4000B29F900D11240895A1E21A2EAA1BBB1B6B
:101F5000FD010DC0AA1FBB1FEE1FFF1FA217B30775
:101F6000E407F50720F0A21BB30BE40BF50B661F8B
:101F7000771F881F991F1A9469F76095709580954F
:101F800090959B01AC01BD01CF0108950E940E10F8
:101F9000A59F900DB49F900DA49F800D911D1124BD
:101FA00008950F93083090F0982F872F762F652F84
:101FB000542F432F322F22270850F4CF220F331FE4
:101FC000441F551F661F771F881F991F0A95B2F778
:101FD0000F91089597FB10F8169400080F9308309E
:101FE00098F00850232F342F452F562F672F782F26
:101FF000892F902DF4CF05949795879577956795C0
:1020000057954795379527950A95AAF70F91089503
:10201000EE0FFF1F0590F491E02D0994A29FB001EF
:10202000B39FC001A39F700D811D1124911DB29F0C
:10203000700D811D1124911D089581E090E0F894A8
:082040000C942210F894FFCF6C
:102048000000000023018C00BA007001EB00C900F9
:10205800DD00456E61626C696E67204952696E00E9
:102068000D0A00456E61626C6564204952696E0014
:00000001FF
